:1000000036C2000065C2000063C2000061C2000089
:100010005FC200005DC200005BC2000059C2000068
:1000200057C2000055C2000053C2000051C2000078
:100030004FC200004DC200004BC2000049C2000088
:1000400047C2000045C2000043C2000041C2000098
:100050003FC200003DC200003BC200000C94BD0C3A
:1000600037C200000C94870C0C945D0C31C2000068
:100070002FC200002DC200002BC2000029C20000C8
:1000800027C2000025C2000023C2000021C20000D8
:100090001FC200001DC200001BC200000C94070D0F
:1000A00017C2000015C2000013C2000011C20000F8
:1000B0000FC200000DC200000BC2000009C2000008
:1000C00007C2000005C2000003C2000001C2000018
:1000D000FFC10000FDC10000FBC10000F9C100002C
:1000E000F7C10000036EDB363D9A9999993DABAAA2
:1000F000AA2A3E000000803F084AD73B3BCE016E53
:1001000084BCBFFDC12F3D6C74319ABD56833DDA6E
:100110003D00C77F11BED9E4BB4C3E916BAAAABE7D
:10012000000000803F072C7AA5BA6CC590DA3B939B
:1001300065FC8BBC53F810FD3C5692834DBD879DEA
:100140003AB63DCBC9BF5BBE73DA0FC93F07634206
:1001500036B79BD8A71A39685618AEBAAB558C1D5E
:100160003CB7CC5763BD6DEDFD753EF6177231BFE0
:10017000000000803F08000000BE922449123EAB00
:10018000AAAA2ABECDCCCC4C3E00000080BEABAAB1
:10019000AAAA3E00000000BF000000803F0000004F
:1001A0000000084178D3BB4387D1133D190E3CC3EF
:1001B000BD4282AD2B3E68EC8276BED98FE1A93E6E
:1001C0004C80EFFFBE01C4FF7F3F00000000000035
:1001D00000002200250028002B002E0031003400F2
:1001E00002010000050108010B01000020002300AE
:1001F000260029002C002F0032000001000003011E
:100200000601090105050505070508080808020299
:1002100002020A0A080804040404010101010101A0
:1002200001010303030303030303040707070C0C83
:100230000C0C0C0C0C0C020202020606060606064A
:1002400006060B0B0B0B0B0B0B0B010210202008EF
:100250000810204010204080020102010804020121
:100260000102040810204080804020100804020190
:1002700080040201804020100804020108040201E9
:100280000102040810204080010204081020408070
:1002900000000A0B02090C0D0E0807030401000000
:1002A000000000000000000000000000000000004E
:1002B000000000000000000000000000121110000B
:1002C000000000000000000000000000000000002E
:1002D0000000000000002053572056657273696FBC
:1002E0006E2050617463683A2030780020535720A4
:1002F0004275696C64204E756D6265723A20307883
:10030000002053572050617274204E756D626572E3
:100310003A203078002053572056657273696F6E0B
:10032000204D696E6F723A20307800535720566521
:100330007273696F6E204D616A6F723A2030780077
:100340004F757470757420696E20666F726D2052DF
:100350006F6C6C2C2050697463682C205961770095
:10036000526F746174696F6E20766563746F72206A
:10037000656E61626C6564004D452043616C20725E
:1003800065706F727420666F756E6421002100477E
:1003900079726F2D766563746F720057616B652D8E
:1003A0007265706F72740053656E736F722D726533
:1003B000706F727400436F6E74726F6C0045786575
:1003C00063757461626C6500436F6D6D616E64008E
:1003D000204368616E6E656C3A00204C656E6774F0
:1003E000683A00205B436F6E74696E7565642070B7
:1003F00061636B65745D20003000200020426F64F3
:10040000793A00300020004865616465723A003036
:100410000020004865616465723A004932432074E7
:10042000696D656F75740053504920494E542074AE
:10043000696D656F75740053504920576169740088
:1004400073656E645061636B657428493243293A61
:1004500020656E645472616E736D697373696F6E3B
:100460002072657475726E65643A20002B0E11243B
:100470001FBECFEFD1E2DEBFCDBF00E00CBF12E068
:10048000A0E0B2E0ECE6FDE200E00BBF02C00790A6
:100490000D92AC3AB107D9F725E0ACEAB2E001C061
:1004A0001D92AE32B207E1F712E0C7E3D2E000E0FE
:1004B00006C021970109802FFE010E94AC16C633A9
:1004C000D10780E00807A9F70E94970E0C94B41694
:1004D00097CD909144039111FCCF91E09093440308
:1004E000909343032FEF2093420310924103260F72
:1004F0002093400390931F0390911F03880F892B33
:1005000080931F0380911E038130F9F410921E0323
:1005100080911F038093BB008091BC0083FDF8CFC6
:1005200085EC8093BC00809144038130E1F380919D
:100530004103861710F460914103A0E2B3E0EEEFAF
:10054000F2E080E0861303C0089585EEEACF9D9126
:1005500091938F5FF7CF08950895EF92FF920F93D5
:100560001F93CF93DF938C017B01D0E0C0E0F701B4
:10057000EC0FFD1F6491662361F0D801ED91FC91B1
:100580000190F081E02DC8011995892B11F0219679
:10059000EECFCE01DF91CF911F910F91FF90EF90A1
:1005A0000895AF92BF92CF92DF92EF92FF920F9396
:1005B0001F93CF93DF936C017B018B01040F151FF9
:1005C000EB015E01AE18BF08C017D10759F0699161
:1005D000D601ED91FC910190F081E02DC6011995B5
:1005E000892B79F7C501DF91CF911F910F91FF9072
:1005F000EF90DF90CF90BF90AF900895FC01538DA6
:10060000448D252F30E0842F90E0821B930B5417EC
:1006100010F0CF96089501970895FC01918D828D79
:10062000981761F0A28DAE0FBF2FB11D5D968C9112
:10063000928D9F5F9F73928F90E008958FEF9FEF51
:100640000895FC01918D828D981731F0828DE80F0D
:10065000F11D858D90E008958FEF9FEF0895FC01C7
:10066000918D228D892F90E0805C9F4F821B910994
:100670008F739927089589E693E0F1DF21E0892BB4
:1006800009F420E0822F0895FC01A48DA80FB92F52
:10069000B11DA35ABF4F2C91848D90E001968F73AA
:1006A0009927848FA689B7892C93A089B1898C91C9
:1006B000837080648C93938D848D981306C0028818
:1006C000F389E02D80818F7D80830895EF92FF92E2
:1006D0000F931F93CF93DF93EC0181E0888F9B8D65
:1006E0008C8D98131AC0E889F989808185FF15C01F
:1006F0009FB7F894EE89FF896083E889F989808142
:100700008370806480839FBF81E090E0DF91CF9110
:100710001F910F91FF90EF900895F62E0B8D10E032
:100720000F5F1F4F0F731127E02E8C8D8E110BC0A2
:100730000FB607FCFACFE889F989808185FFF5CFEC
:10074000CE01A2DFF2CFEB8DEC0FFD2FF11DE35AAE
:10075000FF4FF0829FB7F8940B8FEA89FB89808165
:100760008062D0CFCF93DF93EC01888D8823B1F0E6
:10077000AA89BB89E889F9898C9185FD03C08081AC
:1007800086FD0CC00FB607FCF7CF8C9185FFF2CF2A
:10079000808185FFEDCFCE0177DFEACFDF91CF916A
:1007A000089580E090E0892B21F065DF81110E949F
:1007B000000080E090E0892B49F080E090E0892BF8
:1007C00029F00E94000081110E94000080E090E06A
:1007D000892B49F080E090E0892B29F00E940000ED
:1007E00081110E94000080E090E0892B49F080E0B8
:1007F00090E0892B29F00E94000081110C940000E8
:1008000008958150823108F05AC0E82FF0E088271F
:10081000E35FFB4F8F4F0C94AC162D0431041F0483
:10082000250429045F0434043A043E0444044804C3
:100830004C04520456045F045A046004640480911A
:1008400080008F77809380000895809180008F7D55
:10085000F9CF80918000877FF5CF84B58F7784BDF5
:10086000089584B58F7DFBCF8091B0008F77809302
:10087000B00008958091B0008F7DF9CF80919000F5
:100880008F77809390000895809190008F7DF9CFAD
:1008900080919000877FF5CF8091A0008F77809323
:1008A000A00008958091A0008F7DF9CF8091A000D5
:1008B000877FF5CF809120018F7780932001089565
:1008C000809120018F7DF9CF80912001877FF5CF26
:1008D000CF93DF93282F30E0F901E057FD4F84914B
:1008E000F901E65BFD4FD491F901EC5FFD4FC49136
:1008F000CC2399F0811185DFEC2FF0E0EE0FFF1F84
:10090000E651FE4FA591B491EC91ED2381E090E08A
:1009100009F480E0DF91CF91089580E090E0FACF74
:100920001F93CF93DF93282F30E0F901E057FD4F5D
:100930008491F901E65BFD4FD491F901EC5FFD4F25
:10094000C491CC23A1F0162F81115BDFEC2FF0E0D6
:10095000EE0FFF1FE053FE4FA591B4918FB7F894AF
:10096000EC91111108C0D095DE23DC938FBFDF918D
:10097000CF911F910895DE2BF8CF3FB7F894809167
:10098000F4029091F502A091F602B091F70226B51B
:10099000A89B05C02F3F19F00196A11DB11D3FBFB7
:1009A000BA2FA92F982F8827BC01CD01620F711D86
:1009B000811D911D42E0660F771F881F991F4A9580
:1009C000D1F708958F929F92AF92BF92CF92DF920C
:1009D000EF92FF924B015C01D0DF6B017C01CDDF18
:1009E0006C197D098E099F09683E73408105910548
:1009F000B0F321E0821A9108A108B10888EEC80E70
:100A000083E0D81EE11CF11C81149104A104B104FF
:100A100031F7FF90EF90DF90CF90BF90AF909F9015
:100A20008F90089508958EBD00000DB407FEFDCF90
:100A30008EB508958CBD9DBD089585ED8093BC0055
:100A40008091BC0084FDFCCF109244030895209156
:100A5000CC02260F3327331F21323105ECF42091CD
:100A60004403FC0190E080E0243069F082E00895C6
:100A7000A091CC022191AC0144555D4FA40FB52F3C
:100A8000B11D2C930196861798F38091CC02680FC4
:100A90006093CC0280E0089581E008950895E0918C
:100AA000FD028091FC02E81730F4F0E0E250FD4FC7
:100AB000808190E008958FEF9FEF08959091FD025F
:100AC0008091FC022FEF3FEF981748F4E92FF0E0F8
:100AD000E250FD4F208130E09F5F9093FD02C901FD
:100AE00008958091FC029091FD02891B990B089555
:100AF000CF92DF92EF92FF920F931F93CF93DF93EA
:100B00007C01CB018A0120916803222389F0EB014B
:100B10006B01C40ED51ECC15DD0561F06991D701BE
:100B2000ED91FC910190F081E02DC7011995F3CF73
:100B3000642F8DDFC801DF91CF911F910F91FF903E
:100B4000EF90DF90CF900895CF93DF931F92CDB7B2
:100B5000DEB76983209168032223F9F020916503B1
:100B6000203258F021E030E0FC013383228390E012
:100B700080E00F90DF91CF91089580916603E82F78
:100B8000F0E0EB5BFC4F998190838F5F809366036D
:100B90008093650381E090E0ECCF61E0CE010196A7
:100BA00056DFF8CF90E080E00895CF92DF92EF9289
:100BB000FF92CF93C62FBC01990F880B990B0E940F
:100BC00092136B017C016C2F70E071956195710936
:100BD000072E000C880B990B0E9492139B01AC010D
:100BE00060E070E080E090E40E9401159B01AC01A0
:100BF000C701B6010E949E14CF91FF90EF90DF9045
:100C0000CF9008950F931F93FC0100E012E12AE7B3
:100C100030E090E0401751076207730740F43695C3
:100C20002795179507959F5F9630A1F797E0292F95
:100C3000286B269520839095917091831F910F9139
:100C40000895FB0101900020E9F73197AF01461BA1
:100C5000570BDC01ED91FC910280F381E02D19949A
:100C60008F929F92AF92BF92EF92FF920F931F933A
:100C7000CF93DF93CDB7DEB7A1970FB6F894DEBF61
:100C80000FBECDBF7C01FA01CB0119A2223008F4BE
:100C90002AE08E010F5D1F4F822E912CB12CA12CCA
:100CA000BF01A50194010E948A16F901CA016A30A8
:100CB00004F5605DD8016E938D01232B242B252B29
:100CC00079F790E080E0109719F0BD01C701B9DF16
:100CD000A1960FB6F894DEBF0FBECDBFDF91CF91C6
:100CE0001F910F91FF90EF90BF90AF909F908F90CA
:100CF0000895695CDFCF242F462F50E070E060E05C
:100D0000AFCF4F925F926F927F928F929F92AF92EE
:100D1000BF92CF92DF92EF92FF920F931F93CF93E8
:100D20006B017C01742EAC019B010E94921564E260
:100D300072E0811126C046015701E894B7F82FEF01
:100D40003FEF4FE75FE7C501B4010E9492158111A3
:100D50000CC02FEF3FEF4FE75FE7C501B4010E94E2
:100D6000F81268E272E0181664F02FEF3FEF4FE7D9
:100D70005FE4C701B6010E9493141816A4F46CE254
:100D800072E089E693E0CF911F910F91FF90EF9071
:100D9000DF90CF90BF90AF909F908F907F906F909B
:100DA0005F904F904ECF2FEF3FEF4FE75FECC701C3
:100DB000B6010E94F81287FDE2CF20E030E0A901E1
:100DC000C701B6010E94F81210E000E087FF09C0D9
:100DD0006DE289E693E07ADC8C01F7FAF094F7F89B
:100DE000F094C0E060E070E080E09FE37C1641F0AA
:100DF00020E030E040E251E40E94FC12CF5FF6CFE9
:100E0000A70196010E941B122B013C010E94641352
:100E10004B015C012AE0BC01A40189E693E020DFDC
:100E20007C01E00EF11ECC23C1F1C501B4010E948A
:100E300090139B01AC01C301B2010E941A124B0135
:100E40005C016EE289E693E041DCE80EF91EC150D8
:100E500020F120E030E040E251E4C501B4010E94FD
:100E60009E142B013C010E9464134B01B12CA12C58
:100E70002AE0B501A40189E693E0F2DEE80EF91E4E
:100E8000C501B4010E9490139B01AC01C301B201E2
:100E90000E941A124B015C01DACFC701CF911F915A
:100EA0000F91FF90EF90DF90CF90BF90AF909F9009
:100EB0008F907F906F905F904F90089560E372E005
:100EC000C0CE0F931F93CF93DF93EC0146DB8C01D1
:100ED000CE01F4DF800F911FDF91CF911F910F9111
:100EE0000895EF92FF920F931F93CF93DF931F927A
:100EF0001F92CDB7DEB7182F062F34E0E32EE60E93
:100F00008091C1049091C204009709F063C02DE75D
:100F1000F22E8091CF04DCDC892B49F18091C6044C
:100F2000882339F067E374E08091C4049091C5048C
:100F3000C8DF61E070E080E090E044DDFA94F110F9
:100F4000E8CF8091C60481110AC080E00F900F9015
:100F5000DF91CF911F910F91FF90EF90089567E27D
:100F600074E08091C4049091C504ABDFEECF409152
:100F7000C9045091CA046091CB047091CC04CE0195
:100F8000019640DE89819A8155DD60E08091CD0433
:100F9000C7DC8E2D48DD80E046DD812F44DDA12FAA
:100FA000B0E0AA56BB4F8C9191E0980F9C933BDD2B
:100FB00096E1E92E94E0F92E10E0D7018D917D01A4
:100FC00032DD1F5F0113F9CF61E08091CD04A8DC11
:100FD00081E0BCCF2091C30431E0309368032093BB
:100FE00067031092660310926503DC01ED91FC919A
:100FF0000190F081E02D6E2D19958091C1049091A2
:10100000C204DC01ED91FC910190F081E02D60E0E3
:1010100019958091C1049091C204DC01ED91FC917D
:101020000190F081E02D612F19958091C10490917C
:10103000C204DC01ED91FC910190F081E02DA12F23
:10104000B0E0AA56BB4F6C9121E0260F2C93199566
:1010500086E1E82E84E0F82E10E08091C1049091A2
:10106000C204F70161917F01DC01ED91FC910190D7
:10107000F081E02D19951F5F0113EFCF20916503DB
:1010800011E0213208F048C0809144038111FCCF67
:101090008091670392E09093440391E0909343031F
:1010A0009FEF909342031092410320934003A5E4E5
:1010B000B3E0E0E2F3E090E029134FC010921F0389
:1010C00090911F03880F892B80931F0380911E032B
:1010D000813009F046C010921E0380911F03809357
:1010E000BB008091BC0083FDF8CF85EC8093BC00F1
:1010F000809144038230E1F38091420310E08F3FFE
:1011000059F08091420312E0803231F08091420325
:1011100014E0803309F413E0109266031092650323
:1011200010926803112309F453CF8091C6048823D9
:1011300009F40BCF60E474E08091C4049091C5047D
:101140000CDAE090C404F090C5044AE050E0612F4E
:10115000C701D1DDC701B2DEF8CE3D9131939F5F6B
:10116000ABCF85EEC3CFCF93C4E68091C1049091FD
:10117000C204DC01ED91FC910084F185E02D19950C
:1011800018161906ACF061E070E080E090E01ADC1F
:10119000C15059F78091C604882341F06BE174E097
:1011A0008091C4049091C5048CDE80E0CF910895B5
:1011B00081E0FCCF8F929F92BF92CF92DF92EF920D
:1011C000FF920F931F93CF93DF931F921F92CDB780
:1011D000DEB78091C1049091C204892B09F049C106
:1011E0008091CF0475DB019709F45FC04091C90479
:1011F0005091CA046091CB047091CC04CE01019649
:1012000001DD89819A8116DC60E08091CD0488DB64
:1012100080E009DC082F80E006DC182F80E003DC8A
:10122000F82E80E000DC0093120410931304F09277
:10123000140480931504C8019F770097C1F580912D
:10124000C604882391F163E174E08091C404909115
:10125000C50483D902E114E056E1E52E54E0F52EF1
:1012600061E174E08091C4049091C50476D9D801FD
:101270008D918D01803138F46FE074E08091C40469
:101280009091C5046AD940E150E0F801319760813E
:101290008091C4049091C5042EDDE016F10601F79B
:1012A0008091C4049091C50409DEF12C20C08C010A
:1012B00004501109F12CE12CE016F10670F48FEFC7
:1012C000B2DBB0E8EB16F10420F4F701EE5EFB4F61
:1012D0008483EFEFEE1AFE0AEFCF61E08091CD0438
:1012E0001FDBF090C604F11011C0FF24F3948F2D82
:1012F0000F900F90DF91CF911F910F91FF90EF9082
:10130000DF90CF90BF909F908F900895009112042E
:101310001091130467E074E08091C4049091C504B7
:101320001CD942E1C42E44E0D42E65E074E08091E3
:10133000C4049091C50411D9D6018D916D018031FD
:1013400038F463E074E08091C4049091C50405D939
:1013500040E150E0F601319760818091C4049091A2
:10136000C504C9DCB6E1CB16B4E0DB06F1F63CEF10
:10137000B32EB00EE8E2EB1510F428E2B22E6CEFBB
:1013800073E08091C4049091C504E7D896E1C92E1A
:1013900094E0D92EE12C8091C4049091C504BE1430
:1013A000E9F06AEF73E0D9D84601D6018C9180311B
:1013B00038F468EF73E08091C4049091C504CDD8EF
:1013C000BFEFCB1ADB0A40E150E0F401608180916D
:1013D000C4049091C5048FDCE394DDCF17FF04C0F3
:1013E00063EE73E06EDD1F776AED73E08091C404F5
:1013F0009091C504B2D8A80170E060E02AE0809125
:10140000C4049091C5042CDC60ED73E08091C404A9
:101410009091C504A2D8609114048091C404909165
:10142000C504611109C068EC73E097D88091C404C9
:101430009091C50443DD5BCF613019F46DEB73E02F
:10144000F4CF623019F465EB73E0EFCF633019F439
:1014500067EA73E0EACF643019F46BE973E0E5CF33
:10146000653019F46FE873E0E0CF4AE050E043DC08
:10147000DDCF64E08091C3042CD81092FD028093EC
:10148000FC0271DE882309F410CF8091C104909191
:10149000C204DC01ED91FC910284F385E02D1995E5
:1014A000F82E8091C1049091C204DC01ED91FC9171
:1014B0000284F385E02D1995E82E8091C104909166
:1014C000C204DC01ED91FC910284F385E02D1995B5
:1014D000182F8091C1049091C204DC01ED91FC9120
:1014E0000284F385E02D1995F0921204E092130422
:1014F000109314048093150400E01E2D0F291F770C
:101500000115110509F4D1CE04501109D12CC12CBB
:101510000115110509F4E9CE78010D31110518F016
:101520008CE1E82EF12C64E06E0D8091C3040E94E2
:1015300069021092FD028093FC0215DE882309F4F3
:10154000D4CE8091C1049091C204DC01ED91FC9154
:101550000284F385E02D19958091C1049091C20415
:10156000DC01ED91FC910284F385E02D19958091C9
:10157000C1049091C204DC01ED91FC910284F385D9
:10158000E02D19958091C1049091C204DC01ED9188
:10159000FC910284F385E02D1995B12CBE141F0433
:1015A000C0F48091C1049091C204DC01ED91FC91E2
:1015B0000284F385E02D1995B0E8CB16D10438F4F8
:1015C000F601EE5EFB4F8483F60131966F01B39412
:1015D000E5CF0E191F099CCF1F93CF93DF93E091A6
:1015E0001204F0911304FF77349740911A0460912C
:1015F0001804709119042091170480911704909198
:101600001804A0911904B0911A04809305059093D1
:101610000605A0930705B093080590911D04C0919D
:101620002004D0911F0480911B04309114043530A4
:10163000C1F590911604322F292F3093F204209394
:10164000F1047093F4046093F304982F842F909323
:10165000F6048093F50480911C0490911D049093EE
:10166000F8048093F70480911E0490911F049093D6
:10167000FE048093FD0480912004909121049093B6
:1016800000058093FF04809122049091230490939D
:101690000205809301058AE290E0DF91CF911F91CE
:1016A0000895937060911F0470912004409121046B
:1016B000509122042091230430912404EF30F1054D
:1016C00014F1A0912504B09126047197F4F0E091F3
:1016D0002704F09128048130D9F4892F90E0909369
:1016E000D8048093D7047093D2046093D1045093AC
:1016F000D4044093D3043093D6042093D50480912E
:101700001B0490E0CACFB0E0A0E0F0E0E0E0E3CF5F
:10171000843099F4892F90E09093E0048093DF0463
:101720007093DA046093D9045093DC044093DB0493
:101730003093DE042093DD04E2CF823099F4892FC8
:1017400090E09093E8048093E7047093E204609340
:10175000E1045093E4044093E3043093E6042093BF
:10176000E504CDCF833099F4892F90E09093F00475
:101770008093EF047093EA046093E9045093EC04BF
:101780004093EB043093EE042093ED04B8CF853002
:1017900031F0883021F018ED180F1230D8F4892F6D
:1017A00090E09093FC048093FB047093F2046093A8
:1017B000F1045093F4044093F3043093F60420931F
:1017C000F504B093F804A093F704F093FA04E093BF
:1017D000F90495CF813129F4309304052093030552
:1017E0008ECF833119F4D093090589CF8E3199F4C6
:1017F000C0930A05A1E2B4E090E080E02D91E09171
:101800000B05F0910C05E80FF91F20830196893034
:101810009105A1F774CF843169F470930F0560933B
:101820000E05509311054093100530931305209336
:10183000120565CF853169F4709315056093140521
:1018400050931705409316053093190520931805FA
:1018500056CF863169F470931B0560931A05509337
:101860001D0540931C0530931F0520931E0547CF8F
:10187000813F01F58091C604882339F06DE873E05B
:101880008091C4049091C5041CDB80911D048730B5
:1018900009F035CF8091C604882339F068E773E0FA
:1018A0008091C4049091C5040CDB80912004809346
:1018B0000D0525CF90E080E0F0CE1F920F920FB67D
:1018C0000F9211240BB60F922F933F934F935F9378
:1018D0006F937F938F939F93AF93BF93EF93FF93F8
:1018E00089E693E00E944403FF91EF91BF91AF918D
:1018F0009F918F917F916F915F914F913F912F9128
:101900000F900BBE0F900FBE0F901F9018951F9257
:101910000F920FB60F9211240BB60F922F938F9345
:101920009F93EF93FF93E0917903F0917A03808185
:10193000E0917F03F091800382FD1DC09081809132
:1019400082038F5F8F7320918303821741F0E091B0
:101950008203F0E0E759FC4F958F80938203FF915B
:10196000EF919F918F912F910F900BBE0F900FBE13
:101970000F901F9018958081F2CF1F920F920FB693
:101980000F9211242F933F938F939F93AF93BF9305
:101990008091F0029091F102A091F202B091F302D5
:1019A0003091EF0223E0230F2D3758F50196A11D4A
:1019B000B11D2093EF028093F0029093F102A09367
:1019C000F202B093F3028091F4029091F502A0919B
:1019D000F602B091F7020196A11DB11D8093F402A9
:1019E0009093F502A093F602B093F702BF91AF91E6
:1019F0009F918F913F912F910F900FBE0F901F904D
:101A0000189526E8230F0296A11DB11DD2CF1F9273
:101A10000F920FB60F9211240BB60F922F933F9394
:101A20004F935F936F937F938F939F93AF93BF93E6
:101A3000EF93FF938091B900887F803609F44DC001
:101A400008F040C0883209F4A9C028F5803109F4B3
:101A50009DC0C8F4882309F4FBC0883009F496C0FF
:101A6000FF91EF91BF91AF919F918F917F916F9176
:101A70005F914F913F912F910F900BBE0F900FBE32
:101A80000F901F901895883109F488C0803241F773
:101A90008093420314C0803409F49DC040F4803325
:101AA000B9F38833E9F68093420385ECB0C0803502
:101AB00009F485C0883509F496C0883489F60E94F7
:101AC0001D05CECF883909F48CC038F5883729F048
:101AD00050F4883611F0803719F683E08093440380
:101AE0001092EE0257C0883809F47BC0803919F093
:101AF000803809F0B5CF8091EE02803208F071C0D5
:101B0000E091EE0281E08E0F8093EE028091BB00A7
:101B1000F0E0E253FD4F80833DC0803B39F0E0F4BC
:101B2000803A09F479C0883A09F09ACF84E080932A
:101B300044031092CD021092CC02E091FA02F0918F
:101B4000FB0219958091CC0281110FC081E0809336
:101B5000CC021092AC0209C0803C09F4A6CF883CAC
:101B600009F4A3CF883B09F07BCFE091CD0281E05F
:101B70008E0F8093CD02F0E0E455FD4F808180937D
:101B8000BB009091CD028091CC0229C080911F03AF
:101B90008093BB0085EC8093BC0062CF90914103A1
:101BA00080914003981758F5E091410381E08E0F32
:101BB00080934103F0E0E05EFC4F8081E9CFE0914B
:101BC000410381E08E0F809341038091BB00F0E0E0
:101BD000E05EFC4F80839091410380914003981711
:101BE000C8F285E8D8CFE091410381E08E0F809361
:101BF00041038091BB00F0E0E05EFC4F8083809168
:101C0000430381115CCF81E080931E0384EA8093BB
:101C1000BC001092440324CF85EC8093BC0010924A
:101C200044038091EE02803230F4E091EE02F0E065
:101C3000E253FD4F10826091EE0270E0E091F802F5
:101C4000F091F9028EEC92E019951092EE0208CF15
:101C50001092420334CFE9E6F3E01382128288EE59
:101C600093E0A0E0B0E084839583A683B78324E06B
:101C700032E03183208325EC30E03587248724EC63
:101C800030E03787268720EC30E0318B208B21EC49
:101C900030E0338B228B22EC30E0358B248B26EC2A
:101CA00030E0378B268B118E128E138E148EE6E069
:101CB000F4E01382128284839583A683B78386E13E
:101CC00092E091838083E6E9F4E086E0DF011D92F3
:101CD0008A95E9F710929C041092C6048EE090E079
:101CE00090932105809320058CE090E0909323054C
:101CF0008093220588E090E0909325058093240549
:101D0000909327058093260589E090E0909329051C
:101D10008093280584E090E090932B0580932A051A
:101D20008AE090E090932D0580932C050895CF9341
:101D3000DF93CDB7DEB760970FB6F894DEBF0FBE66
:101D4000CDBF789484B5826084BD84B5816084BD44
:101D500085B5826085BD85B5816085BD80916E0049
:101D6000816080936E00109281008091810082607A
:101D700080938100809181008160809381008091B7
:101D800080008160809380008091B10084608093A6
:101D9000B1008091B00081608093B000809191008B
:101DA0008260809391008091910081608093910086
:101DB000809190008160809390008091A10082606A
:101DC0008093A1008091A10081608093A100809107
:101DD000A00081608093A0008091210182608093A7
:101DE0002101809121018160809321018091200156
:101DF00081608093200180917A00846080937A00D2
:101E000080917A00826080937A0080917A0081606C
:101E100080937A0080917A00806880937A00109293
:101E2000C100E0917903F0917A0382E08083E09130
:101E30007503F09176031082E0917703F0917803B7
:101E400080E1808310928103E0917D03F0917E0315
:101E500086E08083E0917B03F0917C038081806148
:101E60008083E0917B03F0917C0380818860808394
:101E7000E0917B03F0917C03808180688083E09116
:101E80007B03F0917C0380818F7D808389E693E0E2
:101E900015D863E372E089E693E00E94210689E6A3
:101EA00093E00CD81092FD021092FC02109266038F
:101EB000109265031092440381E0809343031092D3
:101EC0001E0361E084E10E94900461E085E10E94CC
:101ED00090048091B9008E7F8093B9008091B90001
:101EE0008D7F8093B90088E48093B80085E4809367
:101EF000BC008BEA92E09093FB028093FA028CEA9A
:101F000092E09093F9028093F8028AE48093C304EC
:101F100086E094E09093C2048093C1048FEF809395
:101F2000CF0481E08093160461E00E94710762E3B0
:101F300070E080E090E00E94E2043CD98111FDCF86
:101F400062E370E080E090E00E94E20433D9811106
:101F5000FDCF89EF809316041092170462E082E0AF
:101F60000E94710727D9882309F4BDC08091160407
:101F7000883F09F0B8C08091C604882309F470C076
:101F80006BE273E08091C4049091C5040E94AD029D
:101F900040E150E0609118048091C4049091C50420
:101FA0000E947B0665E173E08091C4049091C504B2
:101FB0000E94AD0240E150E0609119048091C40498
:101FC0009091C5040E947B06C0901A04D0901B0417
:101FD000E0901C04F0901D0461E073E08091C40463
:101FE0009091C5040E94AD0220E1B701A601809145
:101FF000C4049091C5040E943006C0901E04D09085
:102000001F04E0902004F09021046CEE72E08091B7
:10201000C4049091C5040E94AD0220E1B701A6015D
:102020008091C4049091C5040E943006E09022047F
:10203000F090230466ED72E08091C4049091C50491
:102040000E94AD02C090C404D090C504A70170E006
:1020500060E020E1C6010E943006C6010E945E07D2
:102060008CE08093B8008DEF8093160485E0809318
:102070001704109218041092190410921A0480E1A7
:1020800080931B0487E280931C0410921D0410921D
:102090001E0410921F04109220041092210410922A
:1020A000220410922304109224041092250410920A
:1020B000260461E182E00E94710760E673E089E630
:1020C00093E00E94610760E473E089E693E00E9478
:1020D00061078091CF048F3F89F46CD8811113C0C0
:1020E0000E94D103F6CF67E472E089E693E00E9494
:1020F000210689E693E00E945E07FFCF0E946804F4
:10210000019759F7EDCF80911404833009F076C11F
:10211000809116048B3F21F75FDA892B09F3F09049
:1021200020056F2D8091F7049091F8040E94D50549
:102130002B013C016F2D8091F1049091F2040E94DB
:10214000D5054B015C016F2D8091F3049091F4044F
:102150000E94D50569837A838B839C836F2D809140
:10216000F5049091F6040E94D5056D837E838F83DC
:102170009887A3019201C301B201E0D36B017C01F6
:10218000A5019401C501B401D9D39B01AC01C701DC
:10219000B60151D16B017C0129813A814B815C816F
:1021A000CA01B901CBD39B01AC01C701B60143D130
:1021B0006B017C012D813E814F815885CA01B90197
:1021C000BDD39B01AC01C701B60135D16AD46B0107
:1021D0007C01AC019B01C301B2010ED269877A87F1
:1021E0008B879C87A7019601C501B40105D24B01DD
:1021F0005C01A701960169817A818B819C81FCD168
:1022000069837A838B839C83A70196016D817E818C
:102210008F819885F1D12B013C0129813A814B8135
:102220005C81CA01B9018AD36D837E838F839887CD
:10223000A5019401C501B40181D32D813E814F8157
:102240005885F9D09B01AC01F6D09B01AC0160E050
:1022500070E080E89FE3EED06B017C01A501940162
:1022600069857A858B859C8569D36D877E878F8705
:10227000988BA301920169817A818B819C815ED3C5
:102280009B01AC016D857E858F859889D4D09B019B
:10229000AC01D1D0A701960158D16D877E878F8779
:1022A000988B29813A814B815C8169857A858B8500
:1022B0009C8544D36B017C01A3019201C501B4014B
:1022C0003DD39B01AC01C701B601B4D09B01AC0169
:1022D000B2D06B017C0120E030E040E85FE323D323
:1022E00018160CF4A0C020E030E040E85FEBC70116
:1022F000B6017ED187FF06C0C12CD12C90E8E92E13
:102300009FEBF92EC701B601FAD06B017C01A30146
:102310009201C301B20112D32D813E814F815885B4
:102320008AD09B01AC0187D09B01AC0160E070E0DA
:1023300080E89FE37FD06D837E838F839887A3019E
:10234000920169857A858B859C85F8D22B013C01A9
:1023500029813A814B815C81C501B401EFD29B0197
:10236000AC01C301B20167D09B01AC0164D02D81E7
:102370003E814F815885E9D04B015C0120E030E07F
:1023800044E353E46D857E858F859889D7D22BED04
:102390003FE049E450E430D142E00E94810668EA1F
:1023A00072E089E693E00E94210620E030E044E3F9
:1023B00053E4C701B601C2D22BED3FE049E450E43B
:1023C0001BD142E00E94810668EA72E089E693E050
:1023D0000E94210620E030E044E353E4C501B4014B
:1023E000ADD22BED3FE049E450E406D142E00E943B
:1023F000810689E693E00E945E0772CE823079F40E
:1024000080911604813F09F06BCE809118048730CB
:1024100009F085CE80911B0480930D0580CE853018
:1024200009F05ECE79CEC12CD12C80E8E82E8FE366
:10243000F82E68CF5058BB27AA270ED03AC22BD20D
:1024400030F030D220F031F49F3F11F41EF4EAC195
:102450000EF4E095E7FBE0C1E92F3CD280F3BA1718
:10246000620773078407950718F071F49EF554C24C
:102470000EF4E0950B2EBA2FA02D0B01B90190019F
:102480000C01CA01A0011124FF27591B99F0593FE3
:1024900050F4503E68F11A16F040A22F232F342F2B
:1024A0004427585FF3CF469537952795A795F04079
:1024B0005395C9F77EF41F16BA0B620B730B840B8E
:1024C000BAF09150A1F0FF0FBB1F661F771F881F46
:1024D000C2F70EC0BA0F621F731F841F48F487959E
:1024E00077956795B795F7959E3F08F0B3CF93958D
:1024F000880F08F09927EE0F9795879508959F9379
:102500009F77EEE389379E0720F4E4EEF0E0B2D146
:1025100009C043D19058A2EA2AED3FE049EC5FE3BD
:102520009BDFC7D10F9007FC90580895B4D158F0A5
:1025300080E891E009F49EEFB5D128F040E851E041
:1025400059F45EEF09C06EC1E7C1E92FE078C2D14E
:1025500068F3092E052AC1F32617370748075907DC
:1025600038F00E2E07F8E02569F0E025E0640AC097
:10257000EF6307F8009407FADB01B9019D01DC0164
:10258000CA01AD01EF9347D094D10AD05F91552392
:1025900031F02BED3FE049E450FD49EC4CCF08957C
:1025A000DF93DD27B92FBF7740E85FE316161706E4
:1025B00048075B0710F4D92FBAD19F938F937F936D
:1025C0006F93ADD2E8EFF0E030D173D12F913F910E
:1025D0004F915F91BFD1DD2349F09058A2EA2AEDD7
:1025E0003FE049EC5FE3D0785D2736DFDF9161C1E2
:1025F000EFD008F481E008950CD05BC153D140F0D6
:102600004AD130F021F45F3F19F006C1511185C164
:1026100009C160D198F39923C9F35523B1F3951BF0
:10262000550BBB27AA2762177307840738F09F5FF3
:102630005F4F220F331F441FAA1FA9F333D00E2E62
:102640003AF0E0E830D091505040E695001CCAF7CF
:1026500029D0FE2F27D0660F771F881FBB1F261794
:1026600037074807AB07B0E809F0BB0B802DBF0167
:10267000FF2793585F4F2AF09E3F510568F0CCC06A
:102680004CC15F3FECF3983EDCF3869577956795F8
:10269000B795F7959F5FC9F7880F911D9695879518
:1026A00097F90895E1E0660F771F881FBB1F621737
:1026B00073078407BA0720F0621B730B840BBA0BF5
:1026C000EE1F88F7E09508950DD188F09F5790F0A0
:1026D000B92F9927B751A0F0D1F0660F771F881F47
:1026E000991F1AF0BA95C9F712C0B13081F014D110
:1026F000B1E0089511C1672F782F8827B85F39F0AE
:10270000B93FCCF3869577956795B395D9F73EF4A5
:1027100090958095709561957F4F8F4F9F4F08954D
:10272000E89409C097FB3EF490958095709561956B
:102730007F4F8F4F9F4F9923A9F0F92F96E9BB2721
:102740009395F695879577956795B795F111F8CF9D
:10275000FAF4BB0F11F460FF1BC06F5F7F4F8F4F08
:102760009F4F16C0882311F096E911C0772321F0FE
:102770009EE8872F762F05C0662371F096E8862F96
:1027800070E060E02AF09A95660F771F881FDAF7ED
:10279000880F9695879597F90895DF93CF931F93A8
:1027A0000F938B01EC01E5E2F1E03FD082D098017C
:1027B000AE018B01EC0160E070E080E89FE33ADE5F
:1027C00070D19801AE010F911F91CF91DF91C2C0DE
:1027D000990F0008550FAA0BE0E8FEEF1616170632
:1027E000E807F907C0F012161306E407F50798F09A
:1027F000621B730B840B950B39F40A2661F0232BB3
:10280000242B252B21F408950A2609F4A140A6952E
:102810008FEF811D811D089597F99F6780E870E013
:1028200060E008959FEF80EC0895DF93CF931F93AE
:102830000F93FF92EF92DF927B018C01689405C0A9
:10284000DA2EEF0187D0FE01E894A591259135910C
:1028500045915591AEF3EF01FFDDFE019701A8010F
:10286000DA9479F7DF90EF90FF900F911F91CF915D
:10287000DF9108959F938F937F936F93FF93EF93CF
:102880009B01AC015BD0EF91FF91CFDF2F913F9186
:102890004F915F9153C000240A941616170618062C
:1028A0000906089500240A94121613061406050654
:1028B0000895092E0394000C11F4882352F0BB0FE5
:1028C00040F4BF2B11F460FF04C06F5F7F4F8F4F48
:1028D0009F4F089557FD9058440F551F59F05F3F83
:1028E00071F04795880F97FB991F61F09F3F79F032
:1028F00087950895121613061406551FF2CF4695B4
:10290000F1DF08C0161617061806991FF1CF869535
:102910007105610508940895E894BB276627772719
:10292000CB0197F9089554DF08F48FEF08959B01C8
:10293000AC0160E070E080E89FE35ECE0BD0B9CFE1
:10294000AADF28F0AFDF18F0952309F065CF6ACF32
:102950001124E3CFBFDFA0F3959FD1F3950F50E093
:10296000551F629FF001729FBB27F00DB11D639F41
:10297000AA27F00DB11DAA1F649F6627B00DA11DE7
:10298000661F829F2227B00DA11D621F739FB00D8D
:10299000A11D621F839FA00D611D221F749F3327FD
:1029A000A00D611D231F849F600D211D822F762F96
:1029B0006A2F11249F5750408AF0E1F088234AF093
:1029C000EE0FFF1FBB1F661F771F881F91505040DF
:1029D000A9F79E3F510570F01FCF9FCF5F3FECF3EB
:1029E000983EDCF3869577956795B795F795E795CB
:1029F0009F5FC1F7FE2B880F911D9695879597F9DC
:102A00000895FA01EE0FFF1F30962105310599F167
:102A10006115710561F48038BFE39B0749F1689443
:102A20009038810561F08038BFEF9B0741F0992312
:102A300042F5FF3FE1053105210511F1E8940894C5
:102A4000E795D901AA2329F4AB2FBE2FF85FD0F365
:102A500010C0FF5F70F4A695E0F7F73950F019F059
:102A6000FF3A38F49F779F930CD00F9007FC905853
:102A700008953EF0D7CE60E070E080E89FE30895CF
:102A80004FE79F775F934F933F932F93D0D02F9132
:102A90003F914F915F9152DF4EC011F40EF4C2CEC0
:102AA00076C020DFD0F39923D9F3CEF39F57550B8F
:102AB00087FF7BD00024A0E640EA9001805856951D
:102AC000979528F4805C660F771F881F20F02617E3
:102AD0003707480730F4621B730B840B2029312918
:102AE0004A2BA69517940794202531254A2758F795
:102AF000660F771F881F20F026173707480730F426
:102B0000620B730B840B200D311D411DA09581F7C5
:102B1000B901842F9158880F9695879508959B0148
:102B2000AC010CCF55DE880B990B089519F40EF00B
:102B300073CEF2CE77CED6DEC8F39638C0F707F85C
:102B40000F92E8942BE33AEA48EB5FE705DF0F9238
:102B50000F920F924DB75EB70F92A9D0EDE4F1E05E
:102B600064DE4F915F91EF91FF91E595EE1FFF1F9E
:102B700049F0FE57E0684427EE0F441FFA95E1F74D
:102B80004195550B1BD00F9007FED1CE08959F3F66
:102B900031F0915020F4879577956795B795880F18
:102BA000911D9695879597F9089591505040660F1D
:102BB000771F881FD2F708952FCEE9CF93DEE8F371
:102BC0009923D9F3940F511DBBF39150504094F0C9
:102BD00059F0882332F0660F771F881F91505040BC
:102BE000C1F79E3F510544F7880F911D9695879533
:102BF00097F908955F3FACF0983E9CF0BB2786950F
:102C000077956795B79508F4B1609395C1F7BB0FB9
:102C100058F711F460FFE8CF6F5F7F4F8F4F9F4FE2
:102C2000E3CF7BCE0EF0B3CFFDCD6894F5CD5ADE69
:102C3000C8F39923D1F3C6F3DF93CF931F930F9378
:102C4000FF92C92FDD2788232AF02197660F771F6F
:102C5000881FDAF720E030E040E85FEB9FE3883937
:102C600020F0803E30F021968F77E5DBE5E7F1E05C
:102C700003C0E1DBE2EAF1E0D8DD8B01BE01EC014B
:102C8000FB2E6F5771097595771F880B990B4ADDDD
:102C900028E132E741E35FE35DDEAF2D9801AE014D
:102CA000FF900F911F91CF91DF91D6DB02CEFA01F9
:102CB000DC01AA0FBB1F9B01AC01BF5728F42227E0
:102CC0003327442750781FC0B75188F4AB2F002416
:102CD000469537952795011CA395D2F3002069F0FE
:102CE000220F331F441FB395DAF30DD0A3CB61300D
:102CF0007105A0E88A07B94630F49B01AC0166274C
:102D0000772788279078309621F02083318342837B
:102D100053830895A1E21A2EAA1BBB1BFD010DC00F
:102D2000AA1FBB1FEE1FFF1FA217B307E407F5077B
:102D300020F0A21BB30BE40BF50B661F771F881F57
:102D4000991F1A9469F760957095809590959B01ED
:102D5000AC01BD01CF010895EE0FFF1F881F8BBF8F
:0C2D60000790F691E02D1994F894FFCF35
:102D6C00000000006603D102FE02B2032F030D0324
:102D7C00210300000000A4057805D2054E0571055D
:102D8C005E054F056E616E00696E66006F766600BB
:102D9C000D0A00424E4F3038302052656164204598
:102DAC0078616D706C6500424E4F303830206E6F1C
:102DBC007420646574656374656420617420646553
:102DCC006661756C7420493243206164647265736A
:102DDC00732E20436865636B20796F7572206A755A
:102DEC006D7065727320616E642074686520686F05
:102DFC006F6B75702067756964652E20467265650A
:0C2E0C007A696E672E2E2E002C2000002C
:00000001FF
